{
  "_format": "hh-sol-artifact-1",
  "contractName": "GameItem",
  "sourceName": "contracts/GameItem.sol",
  "abi": [
    {
      "inputs": [],
      "stateMutability": "nonpayable",
      "type": "constructor"
    },
    {
      "anonymous": false,
      "inputs": [
        {
          "indexed": true,
          "internalType": "address",
          "name": "owner",
          "type": "address"
        },
        {
          "indexed": true,
          "internalType": "address",
          "name": "approved",
          "type": "address"
        },
        {
          "indexed": true,
          "internalType": "uint256",
          "name": "tokenId",
          "type": "uint256"
        }
      ],
      "name": "Approval",
      "type": "event"
    },
    {
      "anonymous": false,
      "inputs": [
        {
          "indexed": true,
          "internalType": "address",
          "name": "owner",
          "type": "address"
        },
        {
          "indexed": true,
          "internalType": "address",
          "name": "operator",
          "type": "address"
        },
        {
          "indexed": false,
          "internalType": "bool",
          "name": "approved",
          "type": "bool"
        }
      ],
      "name": "ApprovalForAll",
      "type": "event"
    },
    {
      "anonymous": false,
      "inputs": [
        {
          "indexed": true,
          "internalType": "address",
          "name": "from",
          "type": "address"
        },
        {
          "indexed": true,
          "internalType": "address",
          "name": "to",
          "type": "address"
        },
        {
          "indexed": true,
          "internalType": "uint256",
          "name": "tokenId",
          "type": "uint256"
        }
      ],
      "name": "Transfer",
      "type": "event"
    },
    {
      "inputs": [
        {
          "internalType": "address",
          "name": "to",
          "type": "address"
        },
        {
          "internalType": "uint256",
          "name": "tokenId",
          "type": "uint256"
        }
      ],
      "name": "approve",
      "outputs": [],
      "stateMutability": "nonpayable",
      "type": "function"
    },
    {
      "inputs": [
        {
          "internalType": "address",
          "name": "player",
          "type": "address"
        }
      ],
      "name": "awardItem",
      "outputs": [
        {
          "internalType": "uint256",
          "name": "",
          "type": "uint256"
        }
      ],
      "stateMutability": "nonpayable",
      "type": "function"
    },
    {
      "inputs": [
        {
          "internalType": "address",
          "name": "owner",
          "type": "address"
        }
      ],
      "name": "balanceOf",
      "outputs": [
        {
          "internalType": "uint256",
          "name": "",
          "type": "uint256"
        }
      ],
      "stateMutability": "view",
      "type": "function"
    },
    {
      "inputs": [
        {
          "internalType": "uint256",
          "name": "tokenId",
          "type": "uint256"
        }
      ],
      "name": "getApproved",
      "outputs": [
        {
          "internalType": "address",
          "name": "",
          "type": "address"
        }
      ],
      "stateMutability": "view",
      "type": "function"
    },
    {
      "inputs": [
        {
          "internalType": "address",
          "name": "owner",
          "type": "address"
        },
        {
          "internalType": "address",
          "name": "operator",
          "type": "address"
        }
      ],
      "name": "isApprovedForAll",
      "outputs": [
        {
          "internalType": "bool",
          "name": "",
          "type": "bool"
        }
      ],
      "stateMutability": "view",
      "type": "function"
    },
    {
      "inputs": [],
      "name": "merkleLeaves",
      "outputs": [
        {
          "internalType": "bytes32[4]",
          "name": "",
          "type": "bytes32[4]"
        }
      ],
      "stateMutability": "view",
      "type": "function"
    },
    {
      "inputs": [],
      "name": "merkleRoot",
      "outputs": [
        {
          "internalType": "bytes32",
          "name": "",
          "type": "bytes32"
        }
      ],
      "stateMutability": "view",
      "type": "function"
    },
    {
      "inputs": [],
      "name": "name",
      "outputs": [
        {
          "internalType": "string",
          "name": "",
          "type": "string"
        }
      ],
      "stateMutability": "view",
      "type": "function"
    },
    {
      "inputs": [
        {
          "internalType": "uint256",
          "name": "tokenId",
          "type": "uint256"
        }
      ],
      "name": "ownerOf",
      "outputs": [
        {
          "internalType": "address",
          "name": "",
          "type": "address"
        }
      ],
      "stateMutability": "view",
      "type": "function"
    },
    {
      "inputs": [
        {
          "internalType": "address",
          "name": "from",
          "type": "address"
        },
        {
          "internalType": "address",
          "name": "to",
          "type": "address"
        },
        {
          "internalType": "uint256",
          "name": "tokenId",
          "type": "uint256"
        }
      ],
      "name": "safeTransferFrom",
      "outputs": [],
      "stateMutability": "nonpayable",
      "type": "function"
    },
    {
      "inputs": [
        {
          "internalType": "address",
          "name": "from",
          "type": "address"
        },
        {
          "internalType": "address",
          "name": "to",
          "type": "address"
        },
        {
          "internalType": "uint256",
          "name": "tokenId",
          "type": "uint256"
        },
        {
          "internalType": "bytes",
          "name": "_data",
          "type": "bytes"
        }
      ],
      "name": "safeTransferFrom",
      "outputs": [],
      "stateMutability": "nonpayable",
      "type": "function"
    },
    {
      "inputs": [
        {
          "internalType": "address",
          "name": "operator",
          "type": "address"
        },
        {
          "internalType": "bool",
          "name": "approved",
          "type": "bool"
        }
      ],
      "name": "setApprovalForAll",
      "outputs": [],
      "stateMutability": "nonpayable",
      "type": "function"
    },
    {
      "inputs": [
        {
          "internalType": "bytes4",
          "name": "interfaceId",
          "type": "bytes4"
        }
      ],
      "name": "supportsInterface",
      "outputs": [
        {
          "internalType": "bool",
          "name": "",
          "type": "bool"
        }
      ],
      "stateMutability": "view",
      "type": "function"
    },
    {
      "inputs": [],
      "name": "symbol",
      "outputs": [
        {
          "internalType": "string",
          "name": "",
          "type": "string"
        }
      ],
      "stateMutability": "view",
      "type": "function"
    },
    {
      "inputs": [
        {
          "internalType": "uint256",
          "name": "tokenId",
          "type": "uint256"
        }
      ],
      "name": "tokenURI",
      "outputs": [
        {
          "internalType": "string",
          "name": "",
          "type": "string"
        }
      ],
      "stateMutability": "view",
      "type": "function"
    },
    {
      "inputs": [
        {
          "internalType": "address",
          "name": "from",
          "type": "address"
        },
        {
          "internalType": "address",
          "name": "to",
          "type": "address"
        },
        {
          "internalType": "uint256",
          "name": "tokenId",
          "type": "uint256"
        }
      ],
      "name": "transferFrom",
      "outputs": [],
      "stateMutability": "nonpayable",
      "type": "function"
    }
  ],
  "bytecode": "0x60806040523480156200001157600080fd5b506040518060400160405280600881526020017f47616d654974656d0000000000000000000000000000000000000000000000008152506040518060400160405280600381526020017f49544d000000000000000000000000000000000000000000000000000000000081525081600090805190602001906200009692919062000224565b508060019080519060200190620000af92919062000224565b505050604051620000c090620002b5565b604051809103906000f080158015620000dd573d6000803e3d6000fd5b50600860006101000a81548173ffffffffffffffffffffffffffffffffffffffff021916908373ffffffffffffffffffffffffffffffffffffffff16021790555060007f890740a8eb06ce9be422cb8da5cdafc2b58c0a5e24036c578de2a433c828ff7d905080600860009054906101000a900473ffffffffffffffffffffffffffffffffffffffff1673ffffffffffffffffffffffffffffffffffffffff1663ebf0c7176040518163ffffffff1660e01b815260040160206040518083038186803b158015620001ad57600080fd5b505afa158015620001c2573d6000803e3d6000fd5b505050506040513d601f19601f82011682018060405250810190620001e89190620002f9565b146200021d577f4e487b7100000000000000000000000000000000000000000000000000000000600052600160045260246000fd5b50620003ae565b82805462000232906200032f565b90600052602060002090601f016020900481019282620002565760008555620002a2565b82601f106200027157805160ff1916838001178555620002a2565b82800160010185558215620002a2579182015b82811115620002a157825182559160200191906001019062000284565b5b509050620002b19190620002c3565b5090565b610ee08062003a5e83390190565b5b80821115620002de576000816000905550600101620002c4565b5090565b600081519050620002f38162000394565b92915050565b6000602082840312156200030c57600080fd5b60006200031c84828501620002e2565b91505092915050565b6000819050919050565b600060028204905060018216806200034857607f821691505b602082108114156200035f576200035e62000365565b5b50919050565b7f4e487b7100000000000000000000000000000000000000000000000000000000600052602260045260246000fd5b6200039f8162000325565b8114620003ab57600080fd5b50565b6136a080620003be6000396000f3fe608060405234801561001057600080fd5b50600436106101005760003560e01c806370a0823111610097578063b88d4fde11610066578063b88d4fde146102ad578063c87b56dd146102c9578063e985e9c5146102f9578063f2fb21201461032957610100565b806370a082311461022557806395d89b41146102555780639844122814610273578063a22cb4651461029157610100565b806323b872dd116100d357806323b872dd1461019f5780632eb4a7ab146101bb57806342842e0e146101d95780636352211e146101f557610100565b806301ffc9a71461010557806306fdde0314610135578063081812fc14610153578063095ea7b314610183575b600080fd5b61011f600480360381019061011a919061219b565b610359565b60405161012c9190612849565b60405180910390f35b61013d61043b565b60405161014a91906128a8565b60405180910390f35b61016d600480360381019061016891906121ed565b6104cd565b60405161017a91906127c7565b60405180910390f35b61019d6004803603810190610198919061210d565b610552565b005b6101b960048036038101906101b49190612007565b61066a565b005b6101c36106ca565b6040516101d09190612864565b60405180910390f35b6101f360048036038101906101ee9190612007565b610771565b005b61020f600480360381019061020a91906121ed565b610791565b60405161021c91906127c7565b60405180910390f35b61023f600480360381019061023a9190611fa2565b610843565b60405161024c9190612b0a565b60405180910390f35b61025d6108fb565b60405161026a91906128a8565b60405180910390f35b61027b61098d565b604051610288919061282e565b60405180910390f35b6102ab60048036038101906102a691906120d1565b610a3a565b005b6102c760048036038101906102c29190612056565b610a50565b005b6102e360048036038101906102de91906121ed565b610ab2565b6040516102f091906128a8565b60405180910390f35b610313600480360381019061030e9190611fcb565b610c04565b6040516103209190612849565b60405180910390f35b610343600480360381019061033e9190611fa2565b610c98565b6040516103509190612b0a565b60405180910390f35b60007f80ac58cd000000000000000000000000000000000000000000000000000000007bffffffffffffffffffffffffffffffffffffffffffffffffffffffff1916827bffffffffffffffffffffffffffffffffffffffffffffffffffffffff1916148061042457507f5b5e139f000000000000000000000000000000000000000000000000000000007bffffffffffffffffffffffffffffffffffffffffffffffffffffffff1916827bffffffffffffffffffffffffffffffffffffffffffffffffffffffff1916145b80610434575061043382610e9d565b5b9050919050565b60606000805461044a90612de6565b80601f016020809104026020016040519081016040528092919081815260200182805461047690612de6565b80156104c35780601f10610498576101008083540402835291602001916104c3565b820191906000526020600020905b8154815290600101906020018083116104a657829003601f168201915b5050505050905090565b60006104d882610f07565b610517576040517f08c379a000000000000000000000000000000000000000000000000000000000815260040161050e90612a8a565b60405180910390fd5b6004600083815260200190815260200160002060009054906101000a900473ffffffffffffffffffffffffffffffffffffffff169050919050565b600061055d82610791565b90508073ffffffffffffffffffffffffffffffffffffffff168373ffffffffffffffffffffffffffffffffffffffff1614156105ce576040517f08c379a00000000000000000000000000000000000000000000000000000000081526004016105c590612aca565b60405180910390fd5b8073ffffffffffffffffffffffffffffffffffffffff166105ed610f73565b73ffffffffffffffffffffffffffffffffffffffff16148061061c575061061b81610616610f73565b610c04565b5b61065b576040517f08c379a0000000000000000000000000000000000000000000000000000000008152600401610652906129aa565b60405180910390fd5b6106658383610f7b565b505050565b61067b610675610f73565b82611034565b6106ba576040517f08c379a00000000000000000000000000000000000000000000000000000000081526004016106b190612aea565b60405180910390fd5b6106c5838383611112565b505050565b6000600860009054906101000a900473ffffffffffffffffffffffffffffffffffffffff1673ffffffffffffffffffffffffffffffffffffffff1663ebf0c7176040518163ffffffff1660e01b815260040160206040518083038186803b15801561073457600080fd5b505afa158015610748573d6000803e3d6000fd5b505050506040513d601f19601f8201168201806040525081019061076c9190612172565b905090565b61078c83838360405180602001604052806000815250610a50565b505050565b6000806002600084815260200190815260200160002060009054906101000a900473ffffffffffffffffffffffffffffffffffffffff169050600073ffffffffffffffffffffffffffffffffffffffff168173ffffffffffffffffffffffffffffffffffffffff16141561083a576040517f08c379a0000000000000000000000000000000000000000000000000000000008152600401610831906129ea565b60405180910390fd5b80915050919050565b60008073ffffffffffffffffffffffffffffffffffffffff168273ffffffffffffffffffffffffffffffffffffffff1614156108b4576040517f08c379a00000000000000000000000000000000000000000000000000000000081526004016108ab906129ca565b60405180910390fd5b600360008373ffffffffffffffffffffffffffffffffffffffff1673ffffffffffffffffffffffffffffffffffffffff168152602001908152602001600020549050919050565b60606001805461090a90612de6565b80601f016020809104026020016040519081016040528092919081815260200182805461093690612de6565b80156109835780601f1061095857610100808354040283529160200191610983565b820191906000526020600020905b81548152906001019060200180831161096657829003601f168201915b5050505050905090565b610995611d6d565b600860009054906101000a900473ffffffffffffffffffffffffffffffffffffffff1673ffffffffffffffffffffffffffffffffffffffff1663ad2b30376040518163ffffffff1660e01b815260040160806040518083038186803b1580156109fd57600080fd5b505afa158015610a11573d6000803e3d6000fd5b505050506040513d601f19601f82011682018060405250810190610a359190612149565b905090565b610a4c610a45610f73565b8383611379565b5050565b610a61610a5b610f73565b83611034565b610aa0576040517f08c379a0000000000000000000000000000000000000000000000000000000008152600401610a9790612aea565b60405180910390fd5b610aac848484846114e6565b50505050565b6060610abd82610f07565b610afc576040517f08c379a0000000000000000000000000000000000000000000000000000000008152600401610af390612a6a565b60405180910390fd5b6000600660008481526020019081526020016000208054610b1c90612de6565b80601f0160208091040260200160405190810160405280929190818152602001828054610b4890612de6565b8015610b955780601f10610b6a57610100808354040283529160200191610b95565b820191906000526020600020905b815481529060010190602001808311610b7857829003601f168201915b505050505090506000610ba6611542565b9050600081511415610bbc578192505050610bff565b600082511115610bf1578082604051602001610bd9929190612733565b60405160208183030381529060405292505050610bff565b610bfa84611559565b925050505b919050565b6000600560008473ffffffffffffffffffffffffffffffffffffffff1673ffffffffffffffffffffffffffffffffffffffff16815260200190815260200160002060008373ffffffffffffffffffffffffffffffffffffffff1673ffffffffffffffffffffffffffffffffffffffff16815260200190815260200160002060009054906101000a900460ff16905092915050565b6000610ca46007611600565b6000610cb06007611616565b905060058110610cf5576040517f08c379a0000000000000000000000000000000000000000000000000000000008152600401610cec9061298a565b60405180910390fd5b60008111610d38576040517f08c379a0000000000000000000000000000000000000000000000000000000008152600401610d2f90612a2a565b60405180910390fd5b6000610d4382611624565b604051602001610d539190612757565b60405160208183030381529060405290506000610d6f826117d1565b604051602001610d7f91906127a5565b6040516020818303038152906040529050610d9a858461195b565b610da48382611b35565b600033868584604051602001610dbd94939291906126e9565b604051602081830303815290604052805190602001209050600860009054906101000a900473ffffffffffffffffffffffffffffffffffffffff1673ffffffffffffffffffffffffffffffffffffffff1663a58bb84a82600187610e219190612cf2565b6040518363ffffffff1660e01b8152600401610e3e92919061287f565b602060405180830381600087803b158015610e5857600080fd5b505af1158015610e6c573d6000803e3d6000fd5b505050506040513d601f19601f82011682018060405250810190610e909190612172565b5083945050505050919050565b60007f01ffc9a7000000000000000000000000000000000000000000000000000000007bffffffffffffffffffffffffffffffffffffffffffffffffffffffff1916827bffffffffffffffffffffffffffffffffffffffffffffffffffffffff1916149050919050565b60008073ffffffffffffffffffffffffffffffffffffffff166002600084815260200190815260200160002060009054906101000a900473ffffffffffffffffffffffffffffffffffffffff1673ffffffffffffffffffffffffffffffffffffffff1614159050919050565b600033905090565b816004600083815260200190815260200160002060006101000a81548173ffffffffffffffffffffffffffffffffffffffff021916908373ffffffffffffffffffffffffffffffffffffffff160217905550808273ffffffffffffffffffffffffffffffffffffffff16610fee83610791565b73ffffffffffffffffffffffffffffffffffffffff167f8c5be1e5ebec7d5bd14f71427d1e84f3dd0314c0f7b2291e5b200ac8c7c3b92560405160405180910390a45050565b600061103f82610f07565b61107e576040517f08c379a00000000000000000000000000000000000000000000000000000000081526004016110759061296a565b60405180910390fd5b600061108983610791565b90508073ffffffffffffffffffffffffffffffffffffffff168473ffffffffffffffffffffffffffffffffffffffff1614806110f857508373ffffffffffffffffffffffffffffffffffffffff166110e0846104cd565b73ffffffffffffffffffffffffffffffffffffffff16145b8061110957506111088185610c04565b5b91505092915050565b8273ffffffffffffffffffffffffffffffffffffffff1661113282610791565b73ffffffffffffffffffffffffffffffffffffffff1614611188576040517f08c379a000000000000000000000000000000000000000000000000000000000815260040161117f906128ea565b60405180910390fd5b600073ffffffffffffffffffffffffffffffffffffffff168273ffffffffffffffffffffffffffffffffffffffff1614156111f8576040517f08c379a00000000000000000000000000000000000000000000000000000000081526004016111ef9061292a565b60405180910390fd5b611203838383611ba9565b61120e600082610f7b565b6001600360008573ffffffffffffffffffffffffffffffffffffffff1673ffffffffffffffffffffffffffffffffffffffff168152602001908152602001600020600082825461125e9190612cf2565b925050819055506001600360008473ffffffffffffffffffffffffffffffffffffffff1673ffffffffffffffffffffffffffffffffffffffff16815260200190815260200160002060008282546112b59190612c11565b92505081905550816002600083815260200190815260200160002060006101000a81548173ffffffffffffffffffffffffffffffffffffffff021916908373ffffffffffffffffffffffffffffffffffffffff160217905550808273ffffffffffffffffffffffffffffffffffffffff168473ffffffffffffffffffffffffffffffffffffffff167fddf252ad1be2c89b69c2b068fc378daa952ba7f163c4a11628f55a4df523b3ef60405160405180910390a4611374838383611bae565b505050565b8173ffffffffffffffffffffffffffffffffffffffff168373ffffffffffffffffffffffffffffffffffffffff1614156113e8576040517f08c379a00000000000000000000000000000000000000000000000000000000081526004016113df9061294a565b60405180910390fd5b80600560008573ffffffffffffffffffffffffffffffffffffffff1673ffffffffffffffffffffffffffffffffffffffff16815260200190815260200160002060008473ffffffffffffffffffffffffffffffffffffffff1673ffffffffffffffffffffffffffffffffffffffff16815260200190815260200160002060006101000a81548160ff0219169083151502179055508173ffffffffffffffffffffffffffffffffffffffff168373ffffffffffffffffffffffffffffffffffffffff167f17307eab39ab6107e8899845ad3d59bd9653f200f220920489ca2b5937696c31836040516114d99190612849565b60405180910390a3505050565b6114f1848484611112565b6114fd84848484611bb3565b61153c576040517f08c379a0000000000000000000000000000000000000000000000000000000008152600401611533906128ca565b60405180910390fd5b50505050565b606060405180602001604052806000815250905090565b606061156482610f07565b6115a3576040517f08c379a000000000000000000000000000000000000000000000000000000000815260040161159a90612aaa565b60405180910390fd5b60006115ad611542565b905060008151116115cd57604051806020016040528060008152506115f8565b806115d784611624565b6040516020016115e8929190612733565b6040516020818303038152906040525b915050919050565b6001816000016000828254019250508190555050565b600081600001549050919050565b6060600082141561166c576040518060400160405280600181526020017f300000000000000000000000000000000000000000000000000000000000000081525090506117cc565b600082905060005b6000821461169e57808061168790612e49565b915050600a826116979190612c67565b9150611674565b60008167ffffffffffffffff8111156116e0577f4e487b7100000000000000000000000000000000000000000000000000000000600052604160045260246000fd5b6040519080825280601f01601f1916602001820160405280156117125781602001600182028036833780820191505090505b5090505b600085146117c55760018261172b9190612cf2565b9150600a8561173a9190612ec0565b60306117469190612c11565b60f81b818381518110611782577f4e487b7100000000000000000000000000000000000000000000000000000000600052603260045260246000fd5b60200101907effffffffffffffffffffffffffffffffffffffffffffffffffffffffffffff1916908160001a905350600a856117be9190612c67565b9450611716565b8093505050505b919050565b60606000825114156117f457604051806020016040528060008152509050611956565b600060405180606001604052806040815260200161362b60409139905060006003600285516118239190612c11565b61182d9190612c67565b60046118399190612c98565b67ffffffffffffffff811115611878577f4e487b7100000000000000000000000000000000000000000000000000000000600052604160045260246000fd5b6040519080825280601f01601f1916602001820160405280156118aa5781602001600182028036833780820191505090505b509050600182016020820185865187015b80821015611916576003820191508151603f8160121c168501518453600184019350603f81600c1c168501518453600184019350603f8160061c168501518453600184019350603f81168501518453600184019350506118bb565b505060038651066001811461193257600281146119455761194d565b603d6001830353603d600283035361194d565b603d60018303535b50505080925050505b919050565b600073ffffffffffffffffffffffffffffffffffffffff168273ffffffffffffffffffffffffffffffffffffffff1614156119cb576040517f08c379a00000000000000000000000000000000000000000000000000000000081526004016119c290612a4a565b60405180910390fd5b6119d481610f07565b15611a14576040517f08c379a0000000000000000000000000000000000000000000000000000000008152600401611a0b9061290a565b60405180910390fd5b611a2060008383611ba9565b6001600360008473ffffffffffffffffffffffffffffffffffffffff1673ffffffffffffffffffffffffffffffffffffffff1681526020019081526020016000206000828254611a709190612c11565b92505081905550816002600083815260200190815260200160002060006101000a81548173ffffffffffffffffffffffffffffffffffffffff021916908373ffffffffffffffffffffffffffffffffffffffff160217905550808273ffffffffffffffffffffffffffffffffffffffff16600073ffffffffffffffffffffffffffffffffffffffff167fddf252ad1be2c89b69c2b068fc378daa952ba7f163c4a11628f55a4df523b3ef60405160405180910390a4611b3160008383611bae565b5050565b611b3e82610f07565b611b7d576040517f08c379a0000000000000000000000000000000000000000000000000000000008152600401611b7490612a0a565b60405180910390fd5b80600660008481526020019081526020016000209080519060200190611ba4929190611d8f565b505050565b505050565b505050565b6000611bd48473ffffffffffffffffffffffffffffffffffffffff16611d4a565b15611d3d578373ffffffffffffffffffffffffffffffffffffffff1663150b7a02611bfd610f73565b8786866040518563ffffffff1660e01b8152600401611c1f94939291906127e2565b602060405180830381600087803b158015611c3957600080fd5b505af1925050508015611c6a57506040513d601f19601f82011682018060405250810190611c6791906121c4565b60015b611ced573d8060008114611c9a576040519150601f19603f3d011682016040523d82523d6000602084013e611c9f565b606091505b50600081511415611ce5576040517f08c379a0000000000000000000000000000000000000000000000000000000008152600401611cdc906128ca565b60405180910390fd5b805181602001fd5b63150b7a0260e01b7bffffffffffffffffffffffffffffffffffffffffffffffffffffffff1916817bffffffffffffffffffffffffffffffffffffffffffffffffffffffff191614915050611d42565b600190505b949350505050565b6000808273ffffffffffffffffffffffffffffffffffffffff163b119050919050565b6040518060800160405280600490602082028036833780820191505090505090565b828054611d9b90612de6565b90600052602060002090601f016020900481019282611dbd5760008555611e04565b82601f10611dd657805160ff1916838001178555611e04565b82800160010185558215611e04579182015b82811115611e03578251825591602001919060010190611de8565b5b509050611e119190611e15565b5090565b5b80821115611e2e576000816000905550600101611e16565b5090565b6000611e45611e4084612b4a565b612b25565b90508082856020860282011115611e5b57600080fd5b60005b85811015611e8b5781611e718882611f24565b845260208401935060208301925050600181019050611e5e565b5050509392505050565b6000611ea8611ea384612b70565b612b25565b905082815260208101848484011115611ec057600080fd5b611ecb848285612da4565b509392505050565b600081359050611ee2816135b7565b92915050565b600082601f830112611ef957600080fd5b6004611f06848285611e32565b91505092915050565b600081359050611f1e816135ce565b92915050565b600081519050611f33816135e5565b92915050565b600081359050611f48816135fc565b92915050565b600081519050611f5d816135fc565b92915050565b600082601f830112611f7457600080fd5b8135611f84848260208601611e95565b91505092915050565b600081359050611f9c81613613565b92915050565b600060208284031215611fb457600080fd5b6000611fc284828501611ed3565b91505092915050565b60008060408385031215611fde57600080fd5b6000611fec85828601611ed3565b9250506020611ffd85828601611ed3565b9150509250929050565b60008060006060848603121561201c57600080fd5b600061202a86828701611ed3565b935050602061203b86828701611ed3565b925050604061204c86828701611f8d565b9150509250925092565b6000806000806080858703121561206c57600080fd5b600061207a87828801611ed3565b945050602061208b87828801611ed3565b935050604061209c87828801611f8d565b925050606085013567ffffffffffffffff8111156120b957600080fd5b6120c587828801611f63565b91505092959194509250565b600080604083850312156120e457600080fd5b60006120f285828601611ed3565b925050602061210385828601611f0f565b9150509250929050565b6000806040838503121561212057600080fd5b600061212e85828601611ed3565b925050602061213f85828601611f8d565b9150509250929050565b60006080828403121561215b57600080fd5b600061216984828501611ee8565b91505092915050565b60006020828403121561218457600080fd5b600061219284828501611f24565b91505092915050565b6000602082840312156121ad57600080fd5b60006121bb84828501611f39565b91505092915050565b6000602082840312156121d657600080fd5b60006121e484828501611f4e565b91505092915050565b6000602082840312156121ff57600080fd5b600061220d84828501611f8d565b91505092915050565b600061222283836122ba565b60208301905092915050565b61223781612d26565b82525050565b61224e61224982612d26565b612e92565b82525050565b61225d81612bab565b6122678184612bd9565b925061227282612ba1565b8060005b838110156122a357815161228a8782612216565b965061229583612bcc565b925050600181019050612276565b505050505050565b6122b481612d38565b82525050565b6122c381612d44565b82525050565b6122d281612d44565b82525050565b60006122e382612bb6565b6122ed8185612be4565b93506122fd818560208601612db3565b61230681612fad565b840191505092915050565b600061231c82612bc1565b6123268185612bf5565b9350612336818560208601612db3565b61233f81612fad565b840191505092915050565b600061235582612bc1565b61235f8185612c06565b935061236f818560208601612db3565b80840191505092915050565b6000612388603283612bf5565b915061239382612fcb565b604082019050919050565b60006123ab601383612c06565b91506123b68261301a565b601382019050919050565b60006123ce600283612c06565b91506123d982613043565b600282019050919050565b60006123f1602583612bf5565b91506123fc8261306c565b604082019050919050565b6000612414601c83612bf5565b915061241f826130bb565b602082019050919050565b6000612437602483612bf5565b9150612442826130e4565b604082019050919050565b600061245a601983612bf5565b915061246582613133565b602082019050919050565b600061247d602c83612bf5565b91506124888261315c565b604082019050919050565b60006124a0601683612bf5565b91506124ab826131ab565b602082019050919050565b60006124c3603883612bf5565b91506124ce826131d4565b604082019050919050565b60006124e6602383612c06565b91506124f182613223565b602382019050919050565b6000612509602a83612bf5565b915061251482613272565b604082019050919050565b600061252c602983612bf5565b9150612537826132c1565b604082019050919050565b600061254f602e83612bf5565b915061255a82613310565b604082019050919050565b6000612572600f83612bf5565b915061257d8261335f565b602082019050919050565b6000612595602083612bf5565b91506125a082613388565b602082019050919050565b60006125b8600183612c06565b91506125c3826133b1565b600182019050919050565b60006125db603183612bf5565b91506125e6826133da565b604082019050919050565b60006125fe602c83612bf5565b915061260982613429565b604082019050919050565b6000612621602f83612bf5565b915061262c82613478565b604082019050919050565b6000612644600183612c06565b915061264f826134c7565b600182019050919050565b6000612667602183612bf5565b9150612672826134f0565b604082019050919050565b600061268a601d83612c06565b91506126958261353f565b601d82019050919050565b60006126ad603183612bf5565b91506126b882613568565b604082019050919050565b6126cc81612d9a565b82525050565b6126e36126de82612d9a565b612eb6565b82525050565b60006126f5828761223d565b601482019150612705828661223d565b60148201915061271582856126d2565b602082019150612725828461234a565b915081905095945050505050565b600061273f828561234a565b915061274b828461234a565b91508190509392505050565b600061276282612637565b915061276d8261239e565b9150612779828461234a565b9150612784826123c1565b915061278f826124d9565b915061279a826125ab565b915081905092915050565b60006127b08261267d565b91506127bc828461234a565b915081905092915050565b60006020820190506127dc600083018461222e565b92915050565b60006080820190506127f7600083018761222e565b612804602083018661222e565b61281160408301856126c3565b818103606083015261282381846122d8565b905095945050505050565b60006080820190506128436000830184612254565b92915050565b600060208201905061285e60008301846122ab565b92915050565b600060208201905061287960008301846122c9565b92915050565b600060408201905061289460008301856122c9565b6128a160208301846126c3565b9392505050565b600060208201905081810360008301526128c28184612311565b905092915050565b600060208201905081810360008301526128e38161237b565b9050919050565b60006020820190508181036000830152612903816123e4565b9050919050565b6000602082019050818103600083015261292381612407565b9050919050565b600060208201905081810360008301526129438161242a565b9050919050565b600060208201905081810360008301526129638161244d565b9050919050565b6000602082019050818103600083015261298381612470565b9050919050565b600060208201905081810360008301526129a381612493565b9050919050565b600060208201905081810360008301526129c3816124b6565b9050919050565b600060208201905081810360008301526129e3816124fc565b9050919050565b60006020820190508181036000830152612a038161251f565b9050919050565b60006020820190508181036000830152612a2381612542565b9050919050565b60006020820190508181036000830152612a4381612565565b9050919050565b60006020820190508181036000830152612a6381612588565b9050919050565b60006020820190508181036000830152612a83816125ce565b9050919050565b60006020820190508181036000830152612aa3816125f1565b9050919050565b60006020820190508181036000830152612ac381612614565b9050919050565b60006020820190508181036000830152612ae38161265a565b9050919050565b60006020820190508181036000830152612b03816126a0565b9050919050565b6000602082019050612b1f60008301846126c3565b92915050565b6000612b2f612b40565b9050612b3b8282612e18565b919050565b6000604051905090565b600067ffffffffffffffff821115612b6557612b64612f7e565b5b602082029050919050565b600067ffffffffffffffff821115612b8b57612b8a612f7e565b5b612b9482612fad565b9050602081019050919050565b6000819050919050565b600060049050919050565b600081519050919050565b600081519050919050565b6000602082019050919050565b600081905092915050565b600082825260208201905092915050565b600082825260208201905092915050565b600081905092915050565b6000612c1c82612d9a565b9150612c2783612d9a565b9250827fffffffffffffffffffffffffffffffffffffffffffffffffffffffffffffffff03821115612c5c57612c5b612ef1565b5b828201905092915050565b6000612c7282612d9a565b9150612c7d83612d9a565b925082612c8d57612c8c612f20565b5b828204905092915050565b6000612ca382612d9a565b9150612cae83612d9a565b9250817fffffffffffffffffffffffffffffffffffffffffffffffffffffffffffffffff0483118215151615612ce757612ce6612ef1565b5b828202905092915050565b6000612cfd82612d9a565b9150612d0883612d9a565b925082821015612d1b57612d1a612ef1565b5b828203905092915050565b6000612d3182612d7a565b9050919050565b60008115159050919050565b6000819050919050565b60007fffffffff0000000000000000000000000000000000000000000000000000000082169050919050565b600073ffffffffffffffffffffffffffffffffffffffff82169050919050565b6000819050919050565b82818337600083830152505050565b60005b83811015612dd1578082015181840152602081019050612db6565b83811115612de0576000848401525b50505050565b60006002820490506001821680612dfe57607f821691505b60208210811415612e1257612e11612f4f565b5b50919050565b612e2182612fad565b810181811067ffffffffffffffff82111715612e4057612e3f612f7e565b5b80604052505050565b6000612e5482612d9a565b91507fffffffffffffffffffffffffffffffffffffffffffffffffffffffffffffffff821415612e8757612e86612ef1565b5b600182019050919050565b6000612e9d82612ea4565b9050919050565b6000612eaf82612fbe565b9050919050565b6000819050919050565b6000612ecb82612d9a565b9150612ed683612d9a565b925082612ee657612ee5612f20565b5b828206905092915050565b7f4e487b7100000000000000000000000000000000000000000000000000000000600052601160045260246000fd5b7f4e487b7100000000000000000000000000000000000000000000000000000000600052601260045260246000fd5b7f4e487b7100000000000000000000000000000000000000000000000000000000600052602260045260246000fd5b7f4e487b7100000000000000000000000000000000000000000000000000000000600052604160045260246000fd5b6000601f19601f8301169050919050565b60008160601b9050919050565b7f4552433732313a207472616e7366657220746f206e6f6e20455243373231526560008201527f63656976657220696d706c656d656e7465720000000000000000000000000000602082015250565b7f226e616d65223a202247616d654974656d202300000000000000000000000000600082015250565b7f222c000000000000000000000000000000000000000000000000000000000000600082015250565b7f4552433732313a207472616e736665722066726f6d20696e636f72726563742060008201527f6f776e6572000000000000000000000000000000000000000000000000000000602082015250565b7f4552433732313a20746f6b656e20616c7265616479206d696e74656400000000600082015250565b7f4552433732313a207472616e7366657220746f20746865207a65726f2061646460008201527f7265737300000000000000000000000000000000000000000000000000000000602082015250565b7f4552433732313a20617070726f766520746f2063616c6c657200000000000000600082015250565b7f4552433732313a206f70657261746f7220717565727920666f72206e6f6e657860008201527f697374656e7420746f6b656e0000000000000000000000000000000000000000602082015250565b7f7265616368206d61782067616d65206974656d20696400000000000000000000600082015250565b7f4552433732313a20617070726f76652063616c6c6572206973206e6f74206f7760008201527f6e6572206e6f7220617070726f76656420666f7220616c6c0000000000000000602082015250565b7f226465736372697074696f6e223a202264656d6f2067616d65206974656d206e60008201527f6674220000000000000000000000000000000000000000000000000000000000602082015250565b7f4552433732313a2062616c616e636520717565727920666f7220746865207a6560008201527f726f206164647265737300000000000000000000000000000000000000000000602082015250565b7f4552433732313a206f776e657220717565727920666f72206e6f6e657869737460008201527f656e7420746f6b656e0000000000000000000000000000000000000000000000602082015250565b7f45524337323155524953746f726167653a2055524920736574206f66206e6f6e60008201527f6578697374656e7420746f6b656e000000000000000000000000000000000000602082015250565b7f6d696e696d616c20696420697320310000000000000000000000000000000000600082015250565b7f4552433732313a206d696e7420746f20746865207a65726f2061646472657373600082015250565b7f7d00000000000000000000000000000000000000000000000000000000000000600082015250565b7f45524337323155524953746f726167653a2055524920717565727920666f722060008201527f6e6f6e6578697374656e7420746f6b656e000000000000000000000000000000602082015250565b7f4552433732313a20617070726f76656420717565727920666f72206e6f6e657860008201527f697374656e7420746f6b656e0000000000000000000000000000000000000000602082015250565b7f4552433732314d657461646174613a2055524920717565727920666f72206e6f60008201527f6e6578697374656e7420746f6b656e0000000000000000000000000000000000602082015250565b7f7b00000000000000000000000000000000000000000000000000000000000000600082015250565b7f4552433732313a20617070726f76616c20746f2063757272656e74206f776e6560008201527f7200000000000000000000000000000000000000000000000000000000000000602082015250565b7f646174613a6170706c69636174696f6e2f6a736f6e3b6261736536342c000000600082015250565b7f4552433732313a207472616e736665722063616c6c6572206973206e6f74206f60008201527f776e6572206e6f7220617070726f766564000000000000000000000000000000602082015250565b6135c081612d26565b81146135cb57600080fd5b50565b6135d781612d38565b81146135e257600080fd5b50565b6135ee81612d44565b81146135f957600080fd5b50565b61360581612d4e565b811461361057600080fd5b50565b61361c81612d9a565b811461362757600080fd5b5056fe4142434445464748494a4b4c4d4e4f505152535455565758595a6162636465666768696a6b6c6d6e6f707172737475767778797a303132333435363738392b2fa2646970667358221220212a5122a7e15f4bd130482bc97930f80d4b69d42bcd5e4ecc5ed380b88c677464736f6c634300080400336080604052600360075560016008553480156200001b57600080fd5b5060005b6004811015620000b85760006040516020016200003d919062000372565b604051602081830303815290604052805190602001206000600754836200006591906200038f565b600781106200009d577f4e487b7100000000000000000000000000000000000000000000000000000000600052603260045260246000fd5b01819055508080620000af9062000461565b9150506200001f565b5060005b60028110156200022057600080600754600284620000db9190620003ec565b620000e791906200038f565b600781106200011f577f4e487b7100000000000000000000000000000000000000000000000000000000600052603260045260246000fd5b0154905060008060016007546002866200013a9190620003ec565b6200014691906200038f565b6200015291906200038f565b600781106200018a577f4e487b7100000000000000000000000000000000000000000000000000000000600052603260045260246000fd5b015490508181604051602001620001a392919062000342565b60405160208183030381529060405280519060200120600060085485620001cb91906200038f565b6007811062000203577f4e487b7100000000000000000000000000000000000000000000000000000000600052603260045260246000fd5b018190555050508080620002179062000461565b915050620000bc565b5060006001600781106200025d577f4e487b7100000000000000000000000000000000000000000000000000000000600052603260045260246000fd5b015460006002600781106200029b577f4e487b7100000000000000000000000000000000000000000000000000000000600052603260045260246000fd5b0154604051602001620002b092919062000342565b604051602081830303815290604052805190602001206000806007811062000301577f4e487b7100000000000000000000000000000000000000000000000000000000600052603260045260246000fd5b0181905550620004f2565b620003216200031b826200044d565b620004af565b82525050565b6200033c620003368262000457565b620004b9565b82525050565b60006200035082856200030c565b6020820191506200036282846200030c565b6020820191508190509392505050565b600062000380828462000327565b60208201915081905092915050565b60006200039c8262000457565b9150620003a98362000457565b9250827fffffffffffffffffffffffffffffffffffffffffffffffffffffffffffffffff03821115620003e157620003e0620004c3565b5b828201905092915050565b6000620003f98262000457565b9150620004068362000457565b9250817fffffffffffffffffffffffffffffffffffffffffffffffffffffffffffffffff0483118215151615620004425762000441620004c3565b5b828202905092915050565b6000819050919050565b6000819050919050565b60006200046e8262000457565b91507fffffffffffffffffffffffffffffffffffffffffffffffffffffffffffffffff821415620004a457620004a3620004c3565b5b600182019050919050565b6000819050919050565b6000819050919050565b7f4e487b7100000000000000000000000000000000000000000000000000000000600052601160045260246000fd5b6109de80620005026000396000f3fe608060405234801561001057600080fd5b506004361061004c5760003560e01c8063672c825914610051578063a58bb84a1461006f578063ad2b30371461009f578063ebf0c717146100bd575b600080fd5b6100596100db565b604051610066919061071d565b60405180910390f35b61008960048036038101906100849190610586565b610109565b604051610096919061071d565b60405180910390f35b6100a7610435565b6040516100b49190610702565b60405180910390f35b6100c56104f7565b6040516100d2919061071d565b60405180910390f35b6000806040516020016100ee91906106e7565b60405160208183030381529060405280519060200120905090565b60006004821061014e576040517f08c379a000000000000000000000000000000000000000000000000000000000815260040161014590610738565b60405180910390fd5b60006007548361015e9190610796565b90508360405160200161017191906106a0565b60405160208183030381529060405280519060200120600082600781106101c1577f4e487b7100000000000000000000000000000000000000000000000000000000600052603260045260246000fd5b01819055505b806000146103f057600060026001836101e0919061081d565b6101ea91906107ec565b9050600060026001846101fd919061081d565b61020791906108c2565b14156102fc5760008260078110610247577f4e487b7100000000000000000000000000000000000000000000000000000000600052603260045260246000fd5b015460006001846102589190610796565b6007811061028f577f4e487b7100000000000000000000000000000000000000000000000000000000600052603260045260246000fd5b01546040516020016102a29291906106bb565b60405160208183030381529060405280519060200120600082600781106102f2577f4e487b7100000000000000000000000000000000000000000000000000000000600052603260045260246000fd5b01819055506103e7565b600060018361030b919061081d565b60078110610342577f4e487b7100000000000000000000000000000000000000000000000000000000600052603260045260246000fd5b01546000836007811061037e577f4e487b7100000000000000000000000000000000000000000000000000000000600052603260045260246000fd5b01546040516020016103919291906106bb565b60405160208183030381529060405280519060200120600082600781106103e1577f4e487b7100000000000000000000000000000000000000000000000000000000600052603260045260246000fd5b01819055505b809150506101c7565b6000806007811061042a577f4e487b7100000000000000000000000000000000000000000000000000000000600052603260045260246000fd5b015491505092915050565b61043d61053a565b61044561053a565b60005b60048110156104ef576000600754826104619190610796565b60078110610498577f4e487b7100000000000000000000000000000000000000000000000000000000600052603260045260246000fd5b01548282600481106104d3577f4e487b7100000000000000000000000000000000000000000000000000000000600052603260045260246000fd5b60200201818152505080806104e790610865565b915050610448565b508091505090565b600080600060078110610533577f4e487b7100000000000000000000000000000000000000000000000000000000600052603260045260246000fd5b0154905090565b6040518060800160405280600490602082028036833780820191505090505090565b60008135905061056b8161097a565b92915050565b60008135905061058081610991565b92915050565b6000806040838503121561059957600080fd5b60006105a78582860161055c565b92505060206105b885828601610571565b9150509250929050565b60006105ce8383610631565b60208301905092915050565b6105e381610762565b6105ed818461077a565b92506105f882610758565b8060005b8381101561062957815161061087826105c2565b965061061b8361076d565b9250506001810190506105fc565b505050505050565b61063a81610851565b82525050565b61064981610851565b82525050565b61066061065b82610851565b6108ae565b82525050565b6000610673601783610785565b915061067e82610951565b602082019050919050565b61069a6106958261085b565b6108b8565b82525050565b60006106ac828461064f565b60208201915081905092915050565b60006106c7828561064f565b6020820191506106d7828461064f565b6020820191508190509392505050565b60006106f38284610689565b60208201915081905092915050565b600060808201905061071760008301846105da565b92915050565b60006020820190506107326000830184610640565b92915050565b6000602082019050818103600083015261075181610666565b9050919050565b6000819050919050565b600060049050919050565b6000602082019050919050565b600081905092915050565b600082825260208201905092915050565b60006107a18261085b565b91506107ac8361085b565b9250827fffffffffffffffffffffffffffffffffffffffffffffffffffffffffffffffff038211156107e1576107e06108f3565b5b828201905092915050565b60006107f78261085b565b91506108028361085b565b92508261081257610811610922565b5b828204905092915050565b60006108288261085b565b91506108338361085b565b925082821015610846576108456108f3565b5b828203905092915050565b6000819050919050565b6000819050919050565b60006108708261085b565b91507fffffffffffffffffffffffffffffffffffffffffffffffffffffffffffffffff8214156108a3576108a26108f3565b5b600182019050919050565b6000819050919050565b6000819050919050565b60006108cd8261085b565b91506108d88361085b565b9250826108e8576108e7610922565b5b828206905092915050565b7f4e487b7100000000000000000000000000000000000000000000000000000000600052601160045260246000fd5b7f4e487b7100000000000000000000000000000000000000000000000000000000600052601260045260246000fd5b7f6c65616620696e646578206f7574206f6620626f756e64000000000000000000600082015250565b61098381610851565b811461098e57600080fd5b50565b61099a8161085b565b81146109a557600080fd5b5056fea26469706673582212209989507277ad973c101437bef50c5b871e1858bc7a3e7583c52b1ff6259c5b0f64736f6c63430008040033",
  "linkReferences": {},
  "deployedLinkReferences": {}
}