{
  "_format": "hh-sol-artifact-1",
  "contractName": "GameItem",
  "sourceName": "contracts/GameItem.sol",
  "abi": [
    {
      "inputs": [],
      "stateMutability": "nonpayable",
      "type": "constructor"
    },
    {
      "anonymous": false,
      "inputs": [
        {
          "indexed": true,
          "internalType": "address",
          "name": "owner",
          "type": "address"
        },
        {
          "indexed": true,
          "internalType": "address",
          "name": "approved",
          "type": "address"
        },
        {
          "indexed": true,
          "internalType": "uint256",
          "name": "tokenId",
          "type": "uint256"
        }
      ],
      "name": "Approval",
      "type": "event"
    },
    {
      "anonymous": false,
      "inputs": [
        {
          "indexed": true,
          "internalType": "address",
          "name": "owner",
          "type": "address"
        },
        {
          "indexed": true,
          "internalType": "address",
          "name": "operator",
          "type": "address"
        },
        {
          "indexed": false,
          "internalType": "bool",
          "name": "approved",
          "type": "bool"
        }
      ],
      "name": "ApprovalForAll",
      "type": "event"
    },
    {
      "anonymous": false,
      "inputs": [
        {
          "indexed": true,
          "internalType": "address",
          "name": "from",
          "type": "address"
        },
        {
          "indexed": true,
          "internalType": "address",
          "name": "to",
          "type": "address"
        },
        {
          "indexed": true,
          "internalType": "uint256",
          "name": "tokenId",
          "type": "uint256"
        }
      ],
      "name": "Transfer",
      "type": "event"
    },
    {
      "inputs": [
        {
          "internalType": "address",
          "name": "to",
          "type": "address"
        },
        {
          "internalType": "uint256",
          "name": "tokenId",
          "type": "uint256"
        }
      ],
      "name": "approve",
      "outputs": [],
      "stateMutability": "nonpayable",
      "type": "function"
    },
    {
      "inputs": [
        {
          "internalType": "address",
          "name": "player",
          "type": "address"
        }
      ],
      "name": "awardItem",
      "outputs": [
        {
          "internalType": "uint256",
          "name": "",
          "type": "uint256"
        }
      ],
      "stateMutability": "nonpayable",
      "type": "function"
    },
    {
      "inputs": [
        {
          "internalType": "address",
          "name": "owner",
          "type": "address"
        }
      ],
      "name": "balanceOf",
      "outputs": [
        {
          "internalType": "uint256",
          "name": "",
          "type": "uint256"
        }
      ],
      "stateMutability": "view",
      "type": "function"
    },
    {
      "inputs": [
        {
          "internalType": "uint256",
          "name": "tokenId",
          "type": "uint256"
        }
      ],
      "name": "getApproved",
      "outputs": [
        {
          "internalType": "address",
          "name": "",
          "type": "address"
        }
      ],
      "stateMutability": "view",
      "type": "function"
    },
    {
      "inputs": [
        {
          "internalType": "address",
          "name": "owner",
          "type": "address"
        },
        {
          "internalType": "address",
          "name": "operator",
          "type": "address"
        }
      ],
      "name": "isApprovedForAll",
      "outputs": [
        {
          "internalType": "bool",
          "name": "",
          "type": "bool"
        }
      ],
      "stateMutability": "view",
      "type": "function"
    },
    {
      "inputs": [],
      "name": "leaf",
      "outputs": [
        {
          "internalType": "bytes",
          "name": "",
          "type": "bytes"
        }
      ],
      "stateMutability": "view",
      "type": "function"
    },
    {
      "inputs": [],
      "name": "merkleRoot",
      "outputs": [
        {
          "internalType": "bytes32",
          "name": "",
          "type": "bytes32"
        }
      ],
      "stateMutability": "view",
      "type": "function"
    },
    {
      "inputs": [],
      "name": "name",
      "outputs": [
        {
          "internalType": "string",
          "name": "",
          "type": "string"
        }
      ],
      "stateMutability": "view",
      "type": "function"
    },
    {
      "inputs": [
        {
          "internalType": "uint256",
          "name": "tokenId",
          "type": "uint256"
        }
      ],
      "name": "ownerOf",
      "outputs": [
        {
          "internalType": "address",
          "name": "",
          "type": "address"
        }
      ],
      "stateMutability": "view",
      "type": "function"
    },
    {
      "inputs": [
        {
          "internalType": "address",
          "name": "from",
          "type": "address"
        },
        {
          "internalType": "address",
          "name": "to",
          "type": "address"
        },
        {
          "internalType": "uint256",
          "name": "tokenId",
          "type": "uint256"
        }
      ],
      "name": "safeTransferFrom",
      "outputs": [],
      "stateMutability": "nonpayable",
      "type": "function"
    },
    {
      "inputs": [
        {
          "internalType": "address",
          "name": "from",
          "type": "address"
        },
        {
          "internalType": "address",
          "name": "to",
          "type": "address"
        },
        {
          "internalType": "uint256",
          "name": "tokenId",
          "type": "uint256"
        },
        {
          "internalType": "bytes",
          "name": "_data",
          "type": "bytes"
        }
      ],
      "name": "safeTransferFrom",
      "outputs": [],
      "stateMutability": "nonpayable",
      "type": "function"
    },
    {
      "inputs": [
        {
          "internalType": "address",
          "name": "operator",
          "type": "address"
        },
        {
          "internalType": "bool",
          "name": "approved",
          "type": "bool"
        }
      ],
      "name": "setApprovalForAll",
      "outputs": [],
      "stateMutability": "nonpayable",
      "type": "function"
    },
    {
      "inputs": [
        {
          "internalType": "bytes4",
          "name": "interfaceId",
          "type": "bytes4"
        }
      ],
      "name": "supportsInterface",
      "outputs": [
        {
          "internalType": "bool",
          "name": "",
          "type": "bool"
        }
      ],
      "stateMutability": "view",
      "type": "function"
    },
    {
      "inputs": [],
      "name": "symbol",
      "outputs": [
        {
          "internalType": "string",
          "name": "",
          "type": "string"
        }
      ],
      "stateMutability": "view",
      "type": "function"
    },
    {
      "inputs": [
        {
          "internalType": "uint256",
          "name": "tokenId",
          "type": "uint256"
        }
      ],
      "name": "tokenURI",
      "outputs": [
        {
          "internalType": "string",
          "name": "",
          "type": "string"
        }
      ],
      "stateMutability": "view",
      "type": "function"
    },
    {
      "inputs": [
        {
          "internalType": "address",
          "name": "from",
          "type": "address"
        },
        {
          "internalType": "address",
          "name": "to",
          "type": "address"
        },
        {
          "internalType": "uint256",
          "name": "tokenId",
          "type": "uint256"
        }
      ],
      "name": "transferFrom",
      "outputs": [],
      "stateMutability": "nonpayable",
      "type": "function"
    }
  ],
  "bytecode": "0x60806040523480156200001157600080fd5b506040518060400160405280600881526020017f47616d654974656d0000000000000000000000000000000000000000000000008152506040518060400160405280600381526020017f49544d000000000000000000000000000000000000000000000000000000000081525081600090805190602001906200009692919062000224565b508060019080519060200190620000af92919062000224565b505050604051620000c090620002b5565b604051809103906000f080158015620000dd573d6000803e3d6000fd5b50600860006101000a81548173ffffffffffffffffffffffffffffffffffffffff021916908373ffffffffffffffffffffffffffffffffffffffff16021790555060007f890740a8eb06ce9be422cb8da5cdafc2b58c0a5e24036c578de2a433c828ff7d905080600860009054906101000a900473ffffffffffffffffffffffffffffffffffffffff1673ffffffffffffffffffffffffffffffffffffffff1663ebf0c7176040518163ffffffff1660e01b815260040160206040518083038186803b158015620001ad57600080fd5b505afa158015620001c2573d6000803e3d6000fd5b505050506040513d601f19601f82011682018060405250810190620001e89190620002f9565b146200021d577f4e487b7100000000000000000000000000000000000000000000000000000000600052600160045260246000fd5b50620003ae565b82805462000232906200032f565b90600052602060002090601f016020900481019282620002565760008555620002a2565b82601f106200027157805160ff1916838001178555620002a2565b82800160010185558215620002a2579182015b82811115620002a157825182559160200191906001019062000284565b5b509050620002b19190620002c3565b5090565b610cc4806200384983390190565b5b80821115620002de576000816000905550600101620002c4565b5090565b600081519050620002f38162000394565b92915050565b6000602082840312156200030c57600080fd5b60006200031c84828501620002e2565b91505092915050565b6000819050919050565b600060028204905060018216806200034857607f821691505b602082108114156200035f576200035e62000365565b5b50919050565b7f4e487b7100000000000000000000000000000000000000000000000000000000600052602260045260246000fd5b6200039f8162000325565b8114620003ab57600080fd5b50565b61348b80620003be6000396000f3fe608060405234801561001057600080fd5b50600436106101005760003560e01c806370a0823111610097578063b88d4fde11610066578063b88d4fde146102ad578063c87b56dd146102c9578063e985e9c5146102f9578063f2fb21201461032957610100565b806370a082311461022557806391d1ea4d1461025557806395d89b4114610273578063a22cb4651461029157610100565b806323b872dd116100d357806323b872dd1461019f5780632eb4a7ab146101bb57806342842e0e146101d95780636352211e146101f557610100565b806301ffc9a71461010557806306fdde0314610135578063081812fc14610153578063095ea7b314610183575b600080fd5b61011f600480360381019061011a9190612050565b610359565b60405161012c9190612665565b60405180910390f35b61013d61043b565b60405161014a91906126e6565b60405180910390f35b61016d600480360381019061016891906120a2565b6104cd565b60405161017a91906125fe565b60405180910390f35b61019d60048036038101906101989190611feb565b610552565b005b6101b960048036038101906101b49190611ee5565b61066a565b005b6101c36106ca565b6040516101d09190612680565b60405180910390f35b6101f360048036038101906101ee9190611ee5565b610771565b005b61020f600480360381019061020a91906120a2565b610791565b60405161021c91906125fe565b60405180910390f35b61023f600480360381019061023a9190611e80565b610843565b60405161024c9190612948565b60405180910390f35b61025d6108fb565b60405161026a91906126c4565b60405180910390f35b61027b610932565b60405161028891906126e6565b60405180910390f35b6102ab60048036038101906102a69190611faf565b6109c4565b005b6102c760048036038101906102c29190611f34565b6109da565b005b6102e360048036038101906102de91906120a2565b610a3c565b6040516102f091906126e6565b60405180910390f35b610313600480360381019061030e9190611ea9565b610b8e565b6040516103209190612665565b60405180910390f35b610343600480360381019061033e9190611e80565b610c22565b6040516103509190612948565b60405180910390f35b60007f80ac58cd000000000000000000000000000000000000000000000000000000007bffffffffffffffffffffffffffffffffffffffffffffffffffffffff1916827bffffffffffffffffffffffffffffffffffffffffffffffffffffffff1916148061042457507f5b5e139f000000000000000000000000000000000000000000000000000000007bffffffffffffffffffffffffffffffffffffffffffffffffffffffff1916827bffffffffffffffffffffffffffffffffffffffffffffffffffffffff1916145b80610434575061043382610e27565b5b9050919050565b60606000805461044a90612bd1565b80601f016020809104026020016040519081016040528092919081815260200182805461047690612bd1565b80156104c35780601f10610498576101008083540402835291602001916104c3565b820191906000526020600020905b8154815290600101906020018083116104a657829003601f168201915b5050505050905090565b60006104d882610e91565b610517576040517f08c379a000000000000000000000000000000000000000000000000000000000815260040161050e906128c8565b60405180910390fd5b6004600083815260200190815260200160002060009054906101000a900473ffffffffffffffffffffffffffffffffffffffff169050919050565b600061055d82610791565b90508073ffffffffffffffffffffffffffffffffffffffff168373ffffffffffffffffffffffffffffffffffffffff1614156105ce576040517f08c379a00000000000000000000000000000000000000000000000000000000081526004016105c590612908565b60405180910390fd5b8073ffffffffffffffffffffffffffffffffffffffff166105ed610efd565b73ffffffffffffffffffffffffffffffffffffffff16148061061c575061061b81610616610efd565b610b8e565b5b61065b576040517f08c379a0000000000000000000000000000000000000000000000000000000008152600401610652906127e8565b60405180910390fd5b6106658383610f05565b505050565b61067b610675610efd565b82610fbe565b6106ba576040517f08c379a00000000000000000000000000000000000000000000000000000000081526004016106b190612928565b60405180910390fd5b6106c583838361109c565b505050565b6000600860009054906101000a900473ffffffffffffffffffffffffffffffffffffffff1673ffffffffffffffffffffffffffffffffffffffff1663ebf0c7176040518163ffffffff1660e01b815260040160206040518083038186803b15801561073457600080fd5b505afa158015610748573d6000803e3d6000fd5b505050506040513d601f19601f8201168201806040525081019061076c9190612027565b905090565b61078c838383604051806020016040528060008152506109da565b505050565b6000806002600084815260200190815260200160002060009054906101000a900473ffffffffffffffffffffffffffffffffffffffff169050600073ffffffffffffffffffffffffffffffffffffffff168173ffffffffffffffffffffffffffffffffffffffff16141561083a576040517f08c379a000000000000000000000000000000000000000000000000000000000815260040161083190612828565b60405180910390fd5b80915050919050565b60008073ffffffffffffffffffffffffffffffffffffffff168273ffffffffffffffffffffffffffffffffffffffff1614156108b4576040517f08c379a00000000000000000000000000000000000000000000000000000000081526004016108ab90612808565b60405180910390fd5b600360008373ffffffffffffffffffffffffffffffffffffffff1673ffffffffffffffffffffffffffffffffffffffff168152602001908152602001600020549050919050565b60603333600161090b6001610a3c565b60405160200161091e9493929190612520565b604051602081830303815290604052905090565b60606001805461094190612bd1565b80601f016020809104026020016040519081016040528092919081815260200182805461096d90612bd1565b80156109ba5780601f1061098f576101008083540402835291602001916109ba565b820191906000526020600020905b81548152906001019060200180831161099d57829003601f168201915b5050505050905090565b6109d66109cf610efd565b8383611303565b5050565b6109eb6109e5610efd565b83610fbe565b610a2a576040517f08c379a0000000000000000000000000000000000000000000000000000000008152600401610a2190612928565b60405180910390fd5b610a3684848484611470565b50505050565b6060610a4782610e91565b610a86576040517f08c379a0000000000000000000000000000000000000000000000000000000008152600401610a7d906128a8565b60405180910390fd5b6000600660008481526020019081526020016000208054610aa690612bd1565b80601f0160208091040260200160405190810160405280929190818152602001828054610ad290612bd1565b8015610b1f5780601f10610af457610100808354040283529160200191610b1f565b820191906000526020600020905b815481529060010190602001808311610b0257829003601f168201915b505050505090506000610b306114cc565b9050600081511415610b46578192505050610b89565b600082511115610b7b578082604051602001610b6392919061256a565b60405160208183030381529060405292505050610b89565b610b84846114e3565b925050505b919050565b6000600560008473ffffffffffffffffffffffffffffffffffffffff1673ffffffffffffffffffffffffffffffffffffffff16815260200190815260200160002060008373ffffffffffffffffffffffffffffffffffffffff1673ffffffffffffffffffffffffffffffffffffffff16815260200190815260200160002060009054906101000a900460ff16905092915050565b6000610c2e600761158a565b6000610c3a60076115a0565b905060058110610c7f576040517f08c379a0000000000000000000000000000000000000000000000000000000008152600401610c76906127c8565b60405180910390fd5b60008111610cc2576040517f08c379a0000000000000000000000000000000000000000000000000000000008152600401610cb990612868565b60405180910390fd5b6000610ccd826115ae565b604051602001610cdd919061258e565b60405160208183030381529060405290506000610cf98261175b565b604051602001610d0991906125dc565b6040516020818303038152906040529050610d2485846118e5565b610d2e8382611abf565b600033868584604051602001610d479493929190612520565b604051602081830303815290604052805190602001209050600860009054906101000a900473ffffffffffffffffffffffffffffffffffffffff1673ffffffffffffffffffffffffffffffffffffffff1663a58bb84a82600187610dab9190612add565b6040518363ffffffff1660e01b8152600401610dc892919061269b565b602060405180830381600087803b158015610de257600080fd5b505af1158015610df6573d6000803e3d6000fd5b505050506040513d601f19601f82011682018060405250810190610e1a9190612027565b5083945050505050919050565b60007f01ffc9a7000000000000000000000000000000000000000000000000000000007bffffffffffffffffffffffffffffffffffffffffffffffffffffffff1916827bffffffffffffffffffffffffffffffffffffffffffffffffffffffff1916149050919050565b60008073ffffffffffffffffffffffffffffffffffffffff166002600084815260200190815260200160002060009054906101000a900473ffffffffffffffffffffffffffffffffffffffff1673ffffffffffffffffffffffffffffffffffffffff1614159050919050565b600033905090565b816004600083815260200190815260200160002060006101000a81548173ffffffffffffffffffffffffffffffffffffffff021916908373ffffffffffffffffffffffffffffffffffffffff160217905550808273ffffffffffffffffffffffffffffffffffffffff16610f7883610791565b73ffffffffffffffffffffffffffffffffffffffff167f8c5be1e5ebec7d5bd14f71427d1e84f3dd0314c0f7b2291e5b200ac8c7c3b92560405160405180910390a45050565b6000610fc982610e91565b611008576040517f08c379a0000000000000000000000000000000000000000000000000000000008152600401610fff906127a8565b60405180910390fd5b600061101383610791565b90508073ffffffffffffffffffffffffffffffffffffffff168473ffffffffffffffffffffffffffffffffffffffff16148061108257508373ffffffffffffffffffffffffffffffffffffffff1661106a846104cd565b73ffffffffffffffffffffffffffffffffffffffff16145b8061109357506110928185610b8e565b5b91505092915050565b8273ffffffffffffffffffffffffffffffffffffffff166110bc82610791565b73ffffffffffffffffffffffffffffffffffffffff1614611112576040517f08c379a000000000000000000000000000000000000000000000000000000000815260040161110990612728565b60405180910390fd5b600073ffffffffffffffffffffffffffffffffffffffff168273ffffffffffffffffffffffffffffffffffffffff161415611182576040517f08c379a000000000000000000000000000000000000000000000000000000000815260040161117990612768565b60405180910390fd5b61118d838383611b33565b611198600082610f05565b6001600360008573ffffffffffffffffffffffffffffffffffffffff1673ffffffffffffffffffffffffffffffffffffffff16815260200190815260200160002060008282546111e89190612add565b925050819055506001600360008473ffffffffffffffffffffffffffffffffffffffff1673ffffffffffffffffffffffffffffffffffffffff168152602001908152602001600020600082825461123f91906129fc565b92505081905550816002600083815260200190815260200160002060006101000a81548173ffffffffffffffffffffffffffffffffffffffff021916908373ffffffffffffffffffffffffffffffffffffffff160217905550808273ffffffffffffffffffffffffffffffffffffffff168473ffffffffffffffffffffffffffffffffffffffff167fddf252ad1be2c89b69c2b068fc378daa952ba7f163c4a11628f55a4df523b3ef60405160405180910390a46112fe838383611b38565b505050565b8173ffffffffffffffffffffffffffffffffffffffff168373ffffffffffffffffffffffffffffffffffffffff161415611372576040517f08c379a000000000000000000000000000000000000000000000000000000000815260040161136990612788565b60405180910390fd5b80600560008573ffffffffffffffffffffffffffffffffffffffff1673ffffffffffffffffffffffffffffffffffffffff16815260200190815260200160002060008473ffffffffffffffffffffffffffffffffffffffff1673ffffffffffffffffffffffffffffffffffffffff16815260200190815260200160002060006101000a81548160ff0219169083151502179055508173ffffffffffffffffffffffffffffffffffffffff168373ffffffffffffffffffffffffffffffffffffffff167f17307eab39ab6107e8899845ad3d59bd9653f200f220920489ca2b5937696c31836040516114639190612665565b60405180910390a3505050565b61147b84848461109c565b61148784848484611b3d565b6114c6576040517f08c379a00000000000000000000000000000000000000000000000000000000081526004016114bd90612708565b60405180910390fd5b50505050565b606060405180602001604052806000815250905090565b60606114ee82610e91565b61152d576040517f08c379a0000000000000000000000000000000000000000000000000000000008152600401611524906128e8565b60405180910390fd5b60006115376114cc565b905060008151116115575760405180602001604052806000815250611582565b80611561846115ae565b60405160200161157292919061256a565b6040516020818303038152906040525b915050919050565b6001816000016000828254019250508190555050565b600081600001549050919050565b606060008214156115f6576040518060400160405280600181526020017f30000000000000000000000000000000000000000000000000000000000000008152509050611756565b600082905060005b6000821461162857808061161190612c34565b915050600a826116219190612a52565b91506115fe565b60008167ffffffffffffffff81111561166a577f4e487b7100000000000000000000000000000000000000000000000000000000600052604160045260246000fd5b6040519080825280601f01601f19166020018201604052801561169c5781602001600182028036833780820191505090505b5090505b6000851461174f576001826116b59190612add565b9150600a856116c49190612cab565b60306116d091906129fc565b60f81b81838151811061170c577f4e487b7100000000000000000000000000000000000000000000000000000000600052603260045260246000fd5b60200101907effffffffffffffffffffffffffffffffffffffffffffffffffffffffffffff1916908160001a905350600a856117489190612a52565b94506116a0565b8093505050505b919050565b606060008251141561177e576040518060200160405280600081525090506118e0565b600060405180606001604052806040815260200161341660409139905060006003600285516117ad91906129fc565b6117b79190612a52565b60046117c39190612a83565b67ffffffffffffffff811115611802577f4e487b7100000000000000000000000000000000000000000000000000000000600052604160045260246000fd5b6040519080825280601f01601f1916602001820160405280156118345781602001600182028036833780820191505090505b509050600182016020820185865187015b808210156118a0576003820191508151603f8160121c168501518453600184019350603f81600c1c168501518453600184019350603f8160061c168501518453600184019350603f8116850151845360018401935050611845565b50506003865106600181146118bc57600281146118cf576118d7565b603d6001830353603d60028303536118d7565b603d60018303535b50505080925050505b919050565b600073ffffffffffffffffffffffffffffffffffffffff168273ffffffffffffffffffffffffffffffffffffffff161415611955576040517f08c379a000000000000000000000000000000000000000000000000000000000815260040161194c90612888565b60405180910390fd5b61195e81610e91565b1561199e576040517f08c379a000000000000000000000000000000000000000000000000000000000815260040161199590612748565b60405180910390fd5b6119aa60008383611b33565b6001600360008473ffffffffffffffffffffffffffffffffffffffff1673ffffffffffffffffffffffffffffffffffffffff16815260200190815260200160002060008282546119fa91906129fc565b92505081905550816002600083815260200190815260200160002060006101000a81548173ffffffffffffffffffffffffffffffffffffffff021916908373ffffffffffffffffffffffffffffffffffffffff160217905550808273ffffffffffffffffffffffffffffffffffffffff16600073ffffffffffffffffffffffffffffffffffffffff167fddf252ad1be2c89b69c2b068fc378daa952ba7f163c4a11628f55a4df523b3ef60405160405180910390a4611abb60008383611b38565b5050565b611ac882610e91565b611b07576040517f08c379a0000000000000000000000000000000000000000000000000000000008152600401611afe90612848565b60405180910390fd5b80600660008481526020019081526020016000209080519060200190611b2e929190611cf7565b505050565b505050565b505050565b6000611b5e8473ffffffffffffffffffffffffffffffffffffffff16611cd4565b15611cc7578373ffffffffffffffffffffffffffffffffffffffff1663150b7a02611b87610efd565b8786866040518563ffffffff1660e01b8152600401611ba99493929190612619565b602060405180830381600087803b158015611bc357600080fd5b505af1925050508015611bf457506040513d601f19601f82011682018060405250810190611bf19190612079565b60015b611c77573d8060008114611c24576040519150601f19603f3d011682016040523d82523d6000602084013e611c29565b606091505b50600081511415611c6f576040517f08c379a0000000000000000000000000000000000000000000000000000000008152600401611c6690612708565b60405180910390fd5b805181602001fd5b63150b7a0260e01b7bffffffffffffffffffffffffffffffffffffffffffffffffffffffff1916817bffffffffffffffffffffffffffffffffffffffffffffffffffffffff191614915050611ccc565b600190505b949350505050565b6000808273ffffffffffffffffffffffffffffffffffffffff163b119050919050565b828054611d0390612bd1565b90600052602060002090601f016020900481019282611d255760008555611d6c565b82601f10611d3e57805160ff1916838001178555611d6c565b82800160010185558215611d6c579182015b82811115611d6b578251825591602001919060010190611d50565b5b509050611d799190611d7d565b5090565b5b80821115611d96576000816000905550600101611d7e565b5090565b6000611dad611da884612988565b612963565b905082815260208101848484011115611dc557600080fd5b611dd0848285612b8f565b509392505050565b600081359050611de7816133a2565b92915050565b600081359050611dfc816133b9565b92915050565b600081519050611e11816133d0565b92915050565b600081359050611e26816133e7565b92915050565b600081519050611e3b816133e7565b92915050565b600082601f830112611e5257600080fd5b8135611e62848260208601611d9a565b91505092915050565b600081359050611e7a816133fe565b92915050565b600060208284031215611e9257600080fd5b6000611ea084828501611dd8565b91505092915050565b60008060408385031215611ebc57600080fd5b6000611eca85828601611dd8565b9250506020611edb85828601611dd8565b9150509250929050565b600080600060608486031215611efa57600080fd5b6000611f0886828701611dd8565b9350506020611f1986828701611dd8565b9250506040611f2a86828701611e6b565b9150509250925092565b60008060008060808587031215611f4a57600080fd5b6000611f5887828801611dd8565b9450506020611f6987828801611dd8565b9350506040611f7a87828801611e6b565b925050606085013567ffffffffffffffff811115611f9757600080fd5b611fa387828801611e41565b91505092959194509250565b60008060408385031215611fc257600080fd5b6000611fd085828601611dd8565b9250506020611fe185828601611ded565b9150509250929050565b60008060408385031215611ffe57600080fd5b600061200c85828601611dd8565b925050602061201d85828601611e6b565b9150509250929050565b60006020828403121561203957600080fd5b600061204784828501611e02565b91505092915050565b60006020828403121561206257600080fd5b600061207084828501611e17565b91505092915050565b60006020828403121561208b57600080fd5b600061209984828501611e2c565b91505092915050565b6000602082840312156120b457600080fd5b60006120c284828501611e6b565b91505092915050565b6120d481612b11565b82525050565b6120eb6120e682612b11565b612c7d565b82525050565b6120fa81612b23565b82525050565b61210981612b2f565b82525050565b600061211a826129b9565b61212481856129cf565b9350612134818560208601612b9e565b61213d81612d98565b840191505092915050565b6000612153826129c4565b61215d81856129e0565b935061216d818560208601612b9e565b61217681612d98565b840191505092915050565b600061218c826129c4565b61219681856129f1565b93506121a6818560208601612b9e565b80840191505092915050565b60006121bf6032836129e0565b91506121ca82612db6565b604082019050919050565b60006121e26013836129f1565b91506121ed82612e05565b601382019050919050565b60006122056002836129f1565b915061221082612e2e565b600282019050919050565b60006122286025836129e0565b915061223382612e57565b604082019050919050565b600061224b601c836129e0565b915061225682612ea6565b602082019050919050565b600061226e6024836129e0565b915061227982612ecf565b604082019050919050565b60006122916019836129e0565b915061229c82612f1e565b602082019050919050565b60006122b4602c836129e0565b91506122bf82612f47565b604082019050919050565b60006122d76016836129e0565b91506122e282612f96565b602082019050919050565b60006122fa6038836129e0565b915061230582612fbf565b604082019050919050565b600061231d6023836129f1565b91506123288261300e565b602382019050919050565b6000612340602a836129e0565b915061234b8261305d565b604082019050919050565b60006123636029836129e0565b915061236e826130ac565b604082019050919050565b6000612386602e836129e0565b9150612391826130fb565b604082019050919050565b60006123a9600f836129e0565b91506123b48261314a565b602082019050919050565b60006123cc6020836129e0565b91506123d782613173565b602082019050919050565b60006123ef6001836129f1565b91506123fa8261319c565b600182019050919050565b60006124126031836129e0565b915061241d826131c5565b604082019050919050565b6000612435602c836129e0565b915061244082613214565b604082019050919050565b6000612458602f836129e0565b915061246382613263565b604082019050919050565b600061247b6001836129f1565b9150612486826132b2565b600182019050919050565b600061249e6021836129e0565b91506124a9826132db565b604082019050919050565b60006124c1601d836129f1565b91506124cc8261332a565b601d82019050919050565b60006124e46031836129e0565b91506124ef82613353565b604082019050919050565b61250381612b85565b82525050565b61251a61251582612b85565b612ca1565b82525050565b600061252c82876120da565b60148201915061253c82866120da565b60148201915061254c8285612509565b60208201915061255c8284612181565b915081905095945050505050565b60006125768285612181565b91506125828284612181565b91508190509392505050565b60006125998261246e565b91506125a4826121d5565b91506125b08284612181565b91506125bb826121f8565b91506125c682612310565b91506125d1826123e2565b915081905092915050565b60006125e7826124b4565b91506125f38284612181565b915081905092915050565b600060208201905061261360008301846120cb565b92915050565b600060808201905061262e60008301876120cb565b61263b60208301866120cb565b61264860408301856124fa565b818103606083015261265a818461210f565b905095945050505050565b600060208201905061267a60008301846120f1565b92915050565b60006020820190506126956000830184612100565b92915050565b60006040820190506126b06000830185612100565b6126bd60208301846124fa565b9392505050565b600060208201905081810360008301526126de818461210f565b905092915050565b600060208201905081810360008301526127008184612148565b905092915050565b60006020820190508181036000830152612721816121b2565b9050919050565b600060208201905081810360008301526127418161221b565b9050919050565b600060208201905081810360008301526127618161223e565b9050919050565b6000602082019050818103600083015261278181612261565b9050919050565b600060208201905081810360008301526127a181612284565b9050919050565b600060208201905081810360008301526127c1816122a7565b9050919050565b600060208201905081810360008301526127e1816122ca565b9050919050565b60006020820190508181036000830152612801816122ed565b9050919050565b6000602082019050818103600083015261282181612333565b9050919050565b6000602082019050818103600083015261284181612356565b9050919050565b6000602082019050818103600083015261286181612379565b9050919050565b600060208201905081810360008301526128818161239c565b9050919050565b600060208201905081810360008301526128a1816123bf565b9050919050565b600060208201905081810360008301526128c181612405565b9050919050565b600060208201905081810360008301526128e181612428565b9050919050565b600060208201905081810360008301526129018161244b565b9050919050565b6000602082019050818103600083015261292181612491565b9050919050565b60006020820190508181036000830152612941816124d7565b9050919050565b600060208201905061295d60008301846124fa565b92915050565b600061296d61297e565b90506129798282612c03565b919050565b6000604051905090565b600067ffffffffffffffff8211156129a3576129a2612d69565b5b6129ac82612d98565b9050602081019050919050565b600081519050919050565b600081519050919050565b600082825260208201905092915050565b600082825260208201905092915050565b600081905092915050565b6000612a0782612b85565b9150612a1283612b85565b9250827fffffffffffffffffffffffffffffffffffffffffffffffffffffffffffffffff03821115612a4757612a46612cdc565b5b828201905092915050565b6000612a5d82612b85565b9150612a6883612b85565b925082612a7857612a77612d0b565b5b828204905092915050565b6000612a8e82612b85565b9150612a9983612b85565b9250817fffffffffffffffffffffffffffffffffffffffffffffffffffffffffffffffff0483118215151615612ad257612ad1612cdc565b5b828202905092915050565b6000612ae882612b85565b9150612af383612b85565b925082821015612b0657612b05612cdc565b5b828203905092915050565b6000612b1c82612b65565b9050919050565b60008115159050919050565b6000819050919050565b60007fffffffff0000000000000000000000000000000000000000000000000000000082169050919050565b600073ffffffffffffffffffffffffffffffffffffffff82169050919050565b6000819050919050565b82818337600083830152505050565b60005b83811015612bbc578082015181840152602081019050612ba1565b83811115612bcb576000848401525b50505050565b60006002820490506001821680612be957607f821691505b60208210811415612bfd57612bfc612d3a565b5b50919050565b612c0c82612d98565b810181811067ffffffffffffffff82111715612c2b57612c2a612d69565b5b80604052505050565b6000612c3f82612b85565b91507fffffffffffffffffffffffffffffffffffffffffffffffffffffffffffffffff821415612c7257612c71612cdc565b5b600182019050919050565b6000612c8882612c8f565b9050919050565b6000612c9a82612da9565b9050919050565b6000819050919050565b6000612cb682612b85565b9150612cc183612b85565b925082612cd157612cd0612d0b565b5b828206905092915050565b7f4e487b7100000000000000000000000000000000000000000000000000000000600052601160045260246000fd5b7f4e487b7100000000000000000000000000000000000000000000000000000000600052601260045260246000fd5b7f4e487b7100000000000000000000000000000000000000000000000000000000600052602260045260246000fd5b7f4e487b7100000000000000000000000000000000000000000000000000000000600052604160045260246000fd5b6000601f19601f8301169050919050565b60008160601b9050919050565b7f4552433732313a207472616e7366657220746f206e6f6e20455243373231526560008201527f63656976657220696d706c656d656e7465720000000000000000000000000000602082015250565b7f226e616d65223a202247616d654974656d202300000000000000000000000000600082015250565b7f222c000000000000000000000000000000000000000000000000000000000000600082015250565b7f4552433732313a207472616e736665722066726f6d20696e636f72726563742060008201527f6f776e6572000000000000000000000000000000000000000000000000000000602082015250565b7f4552433732313a20746f6b656e20616c7265616479206d696e74656400000000600082015250565b7f4552433732313a207472616e7366657220746f20746865207a65726f2061646460008201527f7265737300000000000000000000000000000000000000000000000000000000602082015250565b7f4552433732313a20617070726f766520746f2063616c6c657200000000000000600082015250565b7f4552433732313a206f70657261746f7220717565727920666f72206e6f6e657860008201527f697374656e7420746f6b656e0000000000000000000000000000000000000000602082015250565b7f7265616368206d61782067616d65206974656d20696400000000000000000000600082015250565b7f4552433732313a20617070726f76652063616c6c6572206973206e6f74206f7760008201527f6e6572206e6f7220617070726f76656420666f7220616c6c0000000000000000602082015250565b7f226465736372697074696f6e223a202264656d6f2067616d65206974656d206e60008201527f6674220000000000000000000000000000000000000000000000000000000000602082015250565b7f4552433732313a2062616c616e636520717565727920666f7220746865207a6560008201527f726f206164647265737300000000000000000000000000000000000000000000602082015250565b7f4552433732313a206f776e657220717565727920666f72206e6f6e657869737460008201527f656e7420746f6b656e0000000000000000000000000000000000000000000000602082015250565b7f45524337323155524953746f726167653a2055524920736574206f66206e6f6e60008201527f6578697374656e7420746f6b656e000000000000000000000000000000000000602082015250565b7f6d696e696d616c20696420697320310000000000000000000000000000000000600082015250565b7f4552433732313a206d696e7420746f20746865207a65726f2061646472657373600082015250565b7f7d00000000000000000000000000000000000000000000000000000000000000600082015250565b7f45524337323155524953746f726167653a2055524920717565727920666f722060008201527f6e6f6e6578697374656e7420746f6b656e000000000000000000000000000000602082015250565b7f4552433732313a20617070726f76656420717565727920666f72206e6f6e657860008201527f697374656e7420746f6b656e0000000000000000000000000000000000000000602082015250565b7f4552433732314d657461646174613a2055524920717565727920666f72206e6f60008201527f6e6578697374656e7420746f6b656e0000000000000000000000000000000000602082015250565b7f7b00000000000000000000000000000000000000000000000000000000000000600082015250565b7f4552433732313a20617070726f76616c20746f2063757272656e74206f776e6560008201527f7200000000000000000000000000000000000000000000000000000000000000602082015250565b7f646174613a6170706c69636174696f6e2f6a736f6e3b6261736536342c000000600082015250565b7f4552433732313a207472616e736665722063616c6c6572206973206e6f74206f60008201527f776e6572206e6f7220617070726f766564000000000000000000000000000000602082015250565b6133ab81612b11565b81146133b657600080fd5b50565b6133c281612b23565b81146133cd57600080fd5b50565b6133d981612b2f565b81146133e457600080fd5b50565b6133f081612b39565b81146133fb57600080fd5b50565b61340781612b85565b811461341257600080fd5b5056fe4142434445464748494a4b4c4d4e4f505152535455565758595a6162636465666768696a6b6c6d6e6f707172737475767778797a303132333435363738392b2fa2646970667358221220589229f41ec2731de17906085e30222e4bfc9e4d9992d15a35ac208b504875ff64736f6c634300080400336080604052600360075560016008553480156200001b57600080fd5b5060005b6004811015620000b85760006040516020016200003d919062000372565b604051602081830303815290604052805190602001206000600754836200006591906200038f565b600781106200009d577f4e487b7100000000000000000000000000000000000000000000000000000000600052603260045260246000fd5b01819055508080620000af9062000461565b9150506200001f565b5060005b60028110156200022057600080600754600284620000db9190620003ec565b620000e791906200038f565b600781106200011f577f4e487b7100000000000000000000000000000000000000000000000000000000600052603260045260246000fd5b0154905060008060016007546002866200013a9190620003ec565b6200014691906200038f565b6200015291906200038f565b600781106200018a577f4e487b7100000000000000000000000000000000000000000000000000000000600052603260045260246000fd5b015490508181604051602001620001a392919062000342565b60405160208183030381529060405280519060200120600060085485620001cb91906200038f565b6007811062000203577f4e487b7100000000000000000000000000000000000000000000000000000000600052603260045260246000fd5b018190555050508080620002179062000461565b915050620000bc565b5060006001600781106200025d577f4e487b7100000000000000000000000000000000000000000000000000000000600052603260045260246000fd5b015460006002600781106200029b577f4e487b7100000000000000000000000000000000000000000000000000000000600052603260045260246000fd5b0154604051602001620002b092919062000342565b604051602081830303815290604052805190602001206000806007811062000301577f4e487b7100000000000000000000000000000000000000000000000000000000600052603260045260246000fd5b0181905550620004f2565b620003216200031b826200044d565b620004af565b82525050565b6200033c620003368262000457565b620004b9565b82525050565b60006200035082856200030c565b6020820191506200036282846200030c565b6020820191508190509392505050565b600062000380828462000327565b60208201915081905092915050565b60006200039c8262000457565b9150620003a98362000457565b9250827fffffffffffffffffffffffffffffffffffffffffffffffffffffffffffffffff03821115620003e157620003e0620004c3565b5b828201905092915050565b6000620003f98262000457565b9150620004068362000457565b9250817fffffffffffffffffffffffffffffffffffffffffffffffffffffffffffffffff0483118215151615620004425762000441620004c3565b5b828202905092915050565b6000819050919050565b6000819050919050565b60006200046e8262000457565b91507fffffffffffffffffffffffffffffffffffffffffffffffffffffffffffffffff821415620004a457620004a3620004c3565b5b600182019050919050565b6000819050919050565b6000819050919050565b7f4e487b7100000000000000000000000000000000000000000000000000000000600052601160045260246000fd5b6107c280620005026000396000f3fe608060405234801561001057600080fd5b50600436106100415760003560e01c8063672c825914610046578063a58bb84a14610064578063ebf0c71714610094575b600080fd5b61004e6100b2565b60405161005b9190610577565b60405180910390f35b61007e60048036038101906100799190610479565b6100e0565b60405161008b9190610577565b60405180910390f35b61009c61040c565b6040516100a99190610577565b60405180910390f35b6000806040516020016100c5919061055c565b60405160208183030381529060405280519060200120905090565b600060048210610125576040517f08c379a000000000000000000000000000000000000000000000000000000000815260040161011c90610592565b60405180910390fd5b60006007548361013591906105c3565b9050836040516020016101489190610515565b6040516020818303038152906040528051906020012060008260078110610198577f4e487b7100000000000000000000000000000000000000000000000000000000600052603260045260246000fd5b01819055505b806000146103c757600060026001836101b7919061064a565b6101c19190610619565b9050600060026001846101d4919061064a565b6101de91906106a6565b14156102d3576000826007811061021e577f4e487b7100000000000000000000000000000000000000000000000000000000600052603260045260246000fd5b0154600060018461022f91906105c3565b60078110610266577f4e487b7100000000000000000000000000000000000000000000000000000000600052603260045260246000fd5b0154604051602001610279929190610530565b60405160208183030381529060405280519060200120600082600781106102c9577f4e487b7100000000000000000000000000000000000000000000000000000000600052603260045260246000fd5b01819055506103be565b60006001836102e2919061064a565b60078110610319577f4e487b7100000000000000000000000000000000000000000000000000000000600052603260045260246000fd5b015460008360078110610355577f4e487b7100000000000000000000000000000000000000000000000000000000600052603260045260246000fd5b0154604051602001610368929190610530565b60405160208183030381529060405280519060200120600082600781106103b8577f4e487b7100000000000000000000000000000000000000000000000000000000600052603260045260246000fd5b01819055505b8091505061019e565b60008060078110610401577f4e487b7100000000000000000000000000000000000000000000000000000000600052603260045260246000fd5b015491505092915050565b600080600060078110610448577f4e487b7100000000000000000000000000000000000000000000000000000000600052603260045260246000fd5b0154905090565b60008135905061045e8161075e565b92915050565b60008135905061047381610775565b92915050565b6000806040838503121561048c57600080fd5b600061049a8582860161044f565b92505060206104ab85828601610464565b9150509250929050565b6104be8161067e565b82525050565b6104d56104d08261067e565b610692565b82525050565b60006104e86017836105b2565b91506104f382610735565b602082019050919050565b61050f61050a82610688565b61069c565b82525050565b600061052182846104c4565b60208201915081905092915050565b600061053c82856104c4565b60208201915061054c82846104c4565b6020820191508190509392505050565b600061056882846104fe565b60208201915081905092915050565b600060208201905061058c60008301846104b5565b92915050565b600060208201905081810360008301526105ab816104db565b9050919050565b600082825260208201905092915050565b60006105ce82610688565b91506105d983610688565b9250827fffffffffffffffffffffffffffffffffffffffffffffffffffffffffffffffff0382111561060e5761060d6106d7565b5b828201905092915050565b600061062482610688565b915061062f83610688565b92508261063f5761063e610706565b5b828204905092915050565b600061065582610688565b915061066083610688565b925082821015610673576106726106d7565b5b828203905092915050565b6000819050919050565b6000819050919050565b6000819050919050565b6000819050919050565b60006106b182610688565b91506106bc83610688565b9250826106cc576106cb610706565b5b828206905092915050565b7f4e487b7100000000000000000000000000000000000000000000000000000000600052601160045260246000fd5b7f4e487b7100000000000000000000000000000000000000000000000000000000600052601260045260246000fd5b7f6c65616620696e646578206f7574206f6620626f756e64000000000000000000600082015250565b6107678161067e565b811461077257600080fd5b50565b61077e81610688565b811461078957600080fd5b5056fea26469706673582212209539c71b6df09b190975dced8bbddd20fd2308c9c5f36dcd04733ebbd9a8ca2164736f6c63430008040033",
  "linkReferences": {},
  "deployedLinkReferences": {}
}